:020000040800F2
:100000000000012085210008D5210008D521000825
:10001000D5210008D5210008D521000800000000E6
:10002000000000000000000000000000D5210008D2
:100030000000000000000000D5210008D5210008C4
:10004000D5210008D5210008D5210008D5210008B8
:10005000D5210008D5210008D5210008D5210008A8
:10006000D5210008D5210008D5210008D521000898
:10007000D5210008D5210008D5210008D521000888
:10008000D5210008D5210008D5210008D521000878
:10009000D5210008D5210008D5210008D521000868
:1000A000D5210008D5210008D5210008D521000858
:1000B000D5210008D521000800000000D521000846
:1000C000D5210008D5210008D5210008D521000838
:1000D000D5210008D5210008D5210008D521000828
:1000E000D5210008D5210008D52100080000000016
:1000F000000000000000000000000000D521000802
:1001000000000000D521000800000000D5210008F3
:10011000D521000800000000D5210008D5210008E5
:10012000D5210008D5210008D5210008D5210008D7
:10013000D5210008D5210008D5210008D5210008C7
:10014000D5210008D5210008D5210008D5210008B7
:10015000D5210008D5210008D5210008D5210008A7
:10016000D5210008D5210008D52100080000000095
:10017000D5210008D5210008D5210008D521000887
:10018000D521000800000000D5210008D521000875
:04019000D52100086D
:1001A00010B5054C237833B9044B13B10448AFF3B1
:1001B00000800123237010BDB8060020000000005D
:1001C0000860000808B5034B1BB103490348AFF3AF
:1001D000008008BD00000000BC0600200860000888
:1001E000034613F8012B002AFBD1181A0138704777
:1001F00001F0FF01102A2BDB10F0070F08D010F8D8
:10020000013B013A8B422DD010F0070F42B3F6D1DB
:10021000F0B441EA012141EA014122F007047FF0F4
:1002200000070023F0E80256083C85EA010586EA4B
:10023000010685FA47F5A3FA87F586FA47F6A5FA87
:1002400087F68EB9EED1F0BC01F0FF0102F0070293
:1002500032B110F8013B013A83EA010313B1F8D13E
:100260000020704701387047002D06BF354603381F
:10027000073815F0010F07D1013015F4807F02BF58
:10028000013015F4C03F0130F0BC0138704700BFA9
:1002900081F0004102E000BF83F0004330B54FEA37
:1002A00041044FEA430594EA050F08BF90EA020FA4
:1002B0001FBF54EA000C55EA020C7FEA645C7FEA37
:1002C000655C00F0E2804FEA5454D4EB5555B8BF5A
:1002D0006D420CDD2C4480EA020281EA030382EACB
:1002E000000083EA010180EA020281EA0303362D5D
:1002F00088BF30BD11F0004F4FEA01314FF4801C30
:100300004CEA113102D0404261EB410113F0004F41
:100310004FEA03334CEA133302D0524263EB4303F8
:1003200094EA050F00F0A780A4F10104D5F1200E96
:100330000DDB02FA0EFC22FA05F2801841F10001F1
:1003400003FA0EF2801843FA05F359410EE0A5F1C5
:1003500020050EF1200E012A03FA0EFC28BF4CF0F6
:10036000020C43FA05F3C01851EBE37101F00045AC
:1003700007D54FF0000EDCF1000C7EEB00006EEBB9
:100380000101B1F5801F1BD3B1F5001F0CD3490843
:100390005FEA30004FEA3C0C04F101044FEA44529A
:1003A00012F5800F80F09A80BCF1004F08BF5FEA21
:1003B000500C50F1000041EB045141EA050130BD01
:1003C0005FEA4C0C404141EB0101013C28BFB1F513
:1003D000801FE9D291F0000F04BF01460020B1FA5E
:1003E00081F308BF2033A3F10B03B3F120020CDA31
:1003F0000C3208DD02F1140CC2F10C0201FA0CF00F
:1004000021FA02F10CE002F11402D8BFC2F1200C73
:1004100001FA02F120FA0CFCDCBF41EA0C01904029
:10042000E41AA2BF01EB0451294330BD6FEA040472
:100430001F3C1CDA0C340EDC04F11404C4F120025D
:1004400020FA04F001FA02F340EA030021FA04F36F
:1004500045EA030130BDC4F10C04C4F1200220FAC6
:1004600002F001FA04F340EA0300294630BD21FA04
:1004700004F0294630BD94F0000F83F4801306BFCA
:1004800081F480110134013D4EE77FEA645C18BFBE
:100490007FEA655C29D094EA050F08BF90EA020F55
:1004A00005D054EA000C04BF1946104630BD91EA4D
:1004B000030F1EBF0021002030BD5FEA545C05D150
:1004C0004000494128BF41F0004130BD14F580048F
:1004D0003CBF01F5801130BD01F0004545F0FE4103
:1004E00041F470014FF0000030BD7FEA645C1ABF38
:1004F000194610467FEA655C1CBF0B46024650EA6F
:10050000013406BF52EA033591EA030F41F400219A
:1005100030BD00BF90F0000F04BF0021704730B520
:100520004FF4806404F132044FF000054FF00001F5
:1005300050E700BF90F0000F04BF0021704730B5B6
:100540004FF4806404F1320410F0004548BF40428B
:100550004FF000013EE700BF42004FEAE2014FEAE0
:1005600031014FEA02701FBF12F07F4393F07F4FBB
:1005700081F06051704732F07F4208BF704793F0BE
:100580007F4F04BF41F40021704730B54FF46074D1
:1005900001F0004521F000411CE700BF50EA0102D4
:1005A00008BF704730B54FF000050AE050EA01027D
:1005B00008BF704730B511F0004502D5404261EBED
:1005C00041014FF4806404F132045FEA915C3FF42E
:1005D000D8AE4FF003025FEADC0C18BF03325FEACB
:1005E000DC0C18BF033202EBDC02C2F1200300FA7C
:1005F00003FC20FA02F001FA03FE40EA0E0021FAA1
:1006000002F11444BDE600BF70B54FF0FF0C4CF48E
:10061000E06C1CEA11541DBF1CEA135594EA0C0F40
:1006200095EA0C0F00F0DEF82C4481EA030621EA7B
:100630004C5123EA4C5350EA013518BF52EA0335B6
:1006400041F4801143F4801338D0A0FB02CE4FF068
:100650000005E1FB02E506F00042E0FB03E54FF098
:100660000006E1FB03569CF0000F18BF4EF0010E90
:10067000A4F1FF04B6F5007F64F5407404D25FEA8C
:100680004E0E6D4146EB060642EAC62141EA55513F
:100690004FEAC52040EA5E504FEACE2EB4F1FD0C81
:1006A00088BFBCF5E06F1ED8BEF1004F08BF5FEAFF
:1006B000500E50F1000041EB045170BD06F00046B1
:1006C00046EA010140EA020081EA0301B4EB5C045E
:1006D000C2BFD4EB0C0541EA045170BD41F4801156
:1006E0004FF0000E013C00F3AB8014F1360FDEBF7B
:1006F000002001F0004170BDC4F10004203C35DA57
:100700000C341BDC04F11404C4F1200500FA05F3D9
:1007100020FA04F001FA05F240EA020001F000427A
:1007200021F0004110EBD37021FA04F642EB0601F0
:100730005EEA430E08BF20EAD37070BDC4F10C041A
:10074000C4F1200500FA04F320FA05F001FA04F2DE
:1007500040EA020001F0004110EBD37041F10001CA
:100760005EEA430E08BF20EAD37070BDC4F12005D5
:1007700000FA05F24EEA020E20FA04F301FA05F23D
:1007800043EA020321FA04F001F0004121FA04F2E5
:1007900020EA020000EBD3705EEA430E08BF20EAB5
:1007A000D37070BD94F0000F0FD101F000464000EF
:1007B00041EB010111F4801F08BF013CF7D041EA71
:1007C000060195F0000F18BF704703F00046520075
:1007D00043EB030313F4801F08BF013DF7D043EA46
:1007E0000603704794EA0C0F0CEA135518BF95EAFC
:1007F0000C0F0CD050EA410618BF52EA4306D1D183
:1008000081EA030101F000414FF0000070BD50EAA1
:10081000410606BF1046194652EA430619D094EA2B
:100820000C0F02D150EA013613D195EA0C0F05D115
:1008300052EA03361CBF104619460AD181EA030169
:1008400001F0004141F0FE4141F470014FF0000021
:1008500070BD41F0FE4141F4780170BD70B54FF0BC
:10086000FF0C4CF4E06C1CEA11541DBF1CEA13553C
:1008700094EA0C0F95EA0C0F00F0A7F8A4EB05041E
:1008800081EA030E52EA03354FEA013100F0888015
:100890004FEA03334FF0805545EA131343EA1263DE
:1008A0004FEA022245EA111545EA10654FEA002693
:1008B0000EF000419D4208BF964244F1FD0404F54C
:1008C000407402D25B084FEA3202B61A65EB0305A8
:1008D0005B084FEA32024FF480104FF4002CB6EB65
:1008E000020E75EB030E22BFB61A754640EA0C00E5
:1008F0005B084FEA3202B6EB020E75EB030E22BF25
:10090000B61A754640EA5C005B084FEA3202B6EB65
:10091000020E75EB030E22BFB61A754640EA9C0024
:100920005B084FEA3202B6EB020E75EB030E22BFF4
:10093000B61A754640EADC0055EA060E18D04FEAB2
:10094000051545EA16754FEA06164FEAC30343EA52
:1009500052734FEAC2025FEA1C1CC0D111F4801F1F
:100960000BD141EA00014FF000004FF0004CB6E718
:1009700011F4801F04BF01430020B4F1FD0C88BFB7
:10098000BCF5E06F3FF6AFAEB5EB030C04BFB6EBC2
:10099000020C5FEA500C50F1000041EB045170BDB5
:1009A0000EF0004E4EEA113114EB5C04C2BFD4EBE2
:1009B0000C0541EA045170BD41F480114FF0000E66
:1009C000013C90E645EA060E8DE60CEA135594EAE2
:1009D0000C0F08BF95EA0C0F3FF43BAF94EA0C0FE5
:1009E0000AD150EA01347FF434AF95EA0C0F7FF45A
:1009F00025AF104619462CE795EA0C0F06D152EAAE
:100A000003353FF4FDAE1046194622E750EA410691
:100A100018BF52EA43067FF4C5AE50EA41047FF4A2
:100A20000DAF52EA43057FF4EBAE12E74FF0FF3C07
:100A300006E000BF4FF0010C02E000BF4FF0010CD8
:100A40004DF804CD4FEA410C7FEA6C5C4FEA430C51
:100A500018BF7FEA6C5C1BD001B050EA410C0CBFA0
:100A600052EA430C91EA030F02BF90EA020F002002
:100A7000704710F1000F91EA030F58BF994208BF69
:100A800090422CBFD8176FEAE37040F00100704726
:100A90004FEA410C7FEA6C5C02D150EA013C07D17D
:100AA0004FEA430C7FEA6C5CD6D152EA033CD3D0C8
:100AB0005DF8040B704700BF8446104662468C46C2
:100AC0001946634600E000BF01B5FFF7B7FF0028F5
:100AD00048BF10F1000F01BD4DF808EDFFF7F4FF1E
:100AE0000CBF012000205DF808FB00BF4DF808EDA9
:100AF000FFF7EAFF34BF012000205DF808FB00BFCC
:100B00004DF808EDFFF7E0FF94BF012000205DF8ED
:100B100008FB00BF4DF808EDFFF7CEFF94BF0120A2
:100B200000205DF808FB00BF4DF808EDFFF7C4FF9B
:100B300034BF012000205DF808FB00BF4FEA410CE4
:100B40007FEA6C5C02D150EA013C0AD14FEA430CC7
:100B50007FEA6C5C02D152EA033C02D14FF0000004
:100B600070474FF0010070474FEA410212F5001242
:100B700015D211D56FF47873B3EB625212D94FEAE4
:100B8000C12343F0004343EA505311F0004F23FACE
:100B900002F018BF404270474FF00000704750EA23
:100BA000013005D111F0004008BF6FF000407047E0
:100BB0004FF00000704700BF53B94AB9002908BF81
:100BC00000281CBF4FF0FF314FF0FF3000F06AB932
:100BD000ADF1080C6DE904CE00F006F8DDF804E094
:100BE000DDE9022304B070472DE9F047089D0C466B
:100BF000002B4ED194468C458646B2FA82F262D9D9
:100C00004AB1C2F12003914020FA03F30CFA02FC2E
:100C1000194300FA02FE4FEA1C471FFA8CF6B1FB9B
:100C2000F7F44FEA1E4307FB141143EA014304FBA8
:100C300006F199420AD91CEB030304F1FF3080F05E
:100C40001281994240F20F81023C6344591A1FFA03
:100C50008EF3B1FBF7F007FB101143EA014300FBF1
:100C600006F69E420AD91CEB030300F1FF3180F027
:100C7000FC809E4240F2F980634402389B1B40EAAC
:100C8000044000211DB1D3400022C5E90032BDE877
:100C9000F0878B4205D90DB1C5E900010021084656
:100CA000F5E7B3FA83F1002946D1A34202D390427B
:100CB000C0F0F080861A64EB03030120002DE6D01B
:100CC000C5E90063E3E7002A40F09080A1EB0C0443
:100CD0004FEA1C481FFA8CF70121B4FBF8F64FEAE3
:100CE0001E4308FB164443EA044307FB06F0984200
:100CF00008D91CEB030306F1FF3402D2984200F23C
:100D0000CD8026461C1A1FFA8EF3B4FBF8F008FBC0
:100D1000104443EA044300FB07F79F4208D91CEB49
:100D2000030300F1FF3402D29F4200F2B08020465C
:100D3000DB1B40EA0640A5E7C1F120068B4022FA02
:100D400006F71F4320FA06FC04FA01F343EA0C03FA
:100D5000F44000FA01F8380C4FEA1349B4FBF0FEF6
:100D60001FFA87FC00FB1E4449EA04440EFB0CF901
:100D7000A14502FA01F20AD93C190EF1FF3A80F0BE
:100D80008480A14540F28180AEF1020E3C44A4EB88
:100D900009041FFA83F9B4FBF0F300FB134449EA9A
:100DA000044403FB0CFCA44507D93C1903F1FF30B4
:100DB00067D2A44565D9023B3C4443EA0E40A0FB00
:100DC0000293A4EB0C049C42CE469C4651D34ED0D9
:100DD00055B1B8EB0E0364EB0C0404FA06F6CB40F5
:100DE0001E43CC40C5E90064002150E7C2F1200356
:100DF00020FA03F10CFA02FC24FA03F394400C43AA
:100E00004FEA1C4800FA02FE1FFA8CF7B3FBF8F019
:100E100008FB1031230C43EA014300FB07F1994220
:100E200008D91CEB030300F1FF362CD299422AD9D2
:100E3000023863445B1AA4B2B3FBF8F108FB113328
:100E400044EA034401FB07F3A34208D91CEB040462
:100E500001F1FF3613D2A34211D902396444E41AD6
:100E600041EA004139E70446F0E6084606E7C8458E
:100E7000AED2B9EB020E63EB070C0138A8E731469E
:100E8000EDE7034699E73046D4E7D6467FE763446B
:100E900002384DE70646234608460FE7023E634404
:100EA00030E700BF704700BF002310B50446C0E91B
:100EB0000033C0E90433836081814366C28183616A
:100EC000194608225C3000F0F4F80D4B23620D4BFC
:100ED00063620D4BA3620D4BE3620D4BE4619C42D8
:100EE00006D003F16802944202D0D0339C4205D16F
:100EF00004F15800BDE8104000F04EB910BD00BF2D
:100F00002D1000084F10000887100008AB100008D3
:100F1000D4060020024A0349034800F069B800BF24
:100F200000000020791800081000002041680C4BD8
:100F3000994210B5044601D000F09EFCA168094B0F
:100F4000994202D0204600F097FCE168064B994296
:100F500004D02046BDE8104000F08EBC10BD00BF9C
:100F6000D40600203C070020A407002010B50B4B3E
:100F70000B4C0C4A1A60204600220421FFF794FF14
:100F800004F1680001220921FFF78EFF04F1D0006F
:100F90000222BDE810401221FFF786BF0C08002096
:100FA000D4060020150F0008014800F0F7B800BF74
:100FB00016080020014800F0F2B800BF1608002013
:100FC00010B50446FFF7F0FF636B1BB1BDE810409E
:100FD000FFF7F0BF044B6363044B1B68002BF5D194
:100FE000FFF7C4FFF2E700BF2D0F00080C08002038
:100FF0002DE9F8430746884614460026D4E90195B2
:10100000B9F1010905D52468002CF7D13046BDE8B7
:10101000F883AB89012B07D9B5F90E30013303D022
:1010200029463846C04706436835E9E710B50C46FF
:10103000B1F90E1000F068F80028ABBF236DA3894A
:101040001B1823F48053ACBF2365A38110BD2DE989
:10105000F0411F468B89DB0505460C46164605D533
:10106000B1F90E100223002200F03CF8A389B4F974
:101070000E1023F48053A38132463B462846BDE838
:10108000F04100F053B810B50C46B1F90E1000F065
:1010900029F8431CA38915BF206523F4805343F42A
:1010A0008053A38118BFA38110BDB1F90E1000F0C9
:1010B00009B802440346934200D1704703F8011B6C
:1010C000F9E7000038B5064D0023044608462B60BA
:1010D00001F028F8431C02D12B6803B1236038BD0E
:1010E0001008002038B5074D044608461146002276
:1010F0002A601A4601F020F8431C02D12B6803B184
:10110000236038BD1008002038B5074D0446084656
:10111000114600222A601A4600F0E6FF431C02D165
:101120002B6803B1236038BD1008002038B5074D87
:1011300004460846114600222A601A4600F0E4FFE1
:10114000431C02D12B6803B1236038BD1008002076
:1011500070B50D4D0D4C641BA4100026A64209D19C
:101160000B4D0C4C04F050FF641BA4100026A6424B
:1011700005D170BD55F8043B98470136EEE755F8A8
:10118000043B98470136F2E7D8630008D8630008AB
:10119000D8630008E46300087047704770477047E1
:1011A000024B13B1024800F005B870470000000080
:1011B000A11A0008002301461A46184600F090BC08
:1011C0002DE9F84306460820894600F07DFC244FAF
:1011D0008046304600F044FBBB685D6825F003059F
:1011E000A5F11104A4EB09044444B4FBF8F4013C58
:1011F00008FB04F4A04505DD304600F037FB002075
:10120000BDE8F8830021304600F03AFCBB682B446F
:101210009842F1D16142304600F032FC013010D1E9
:101220000021304600F02CFCBA68831A0F2BE3DD56
:101230000C490968401A0C4943F0010308605360E7
:10124000DAE7BB68084A2D1B45F001055D601368AD
:1012500030461B1B136000F009FB0120D0E700BFE4
:101260003C010020340100201C080020F8B5044691
:101270000F46002900F0B18000F0F2FA57F8042C74
:10128000564D22F00100A7F1080303EB000CA968FA
:10129000DCF80460614526F0030602F001021BD170
:1012A00006443AB957F8082C9B1A1644D3E902129F
:1012B000CA60916046F001025A60AB60484B1B68FF
:1012C000B34204D8474B20461968FFF779FF204600
:1012D000BDE8F84000F0CABACCF80460002A38D162
:1012E00057F8081C5B1A0844996805F10807B942C9
:1012F00031D0DF68CF60B9600CEB06014968C907DF
:101300000BD4DCF8081030443ABB374EB14224D13C
:10131000C5E90433C3E90211012240F0010159601B
:101320001850002AD3D1B0F5007F1BD2C20801218A
:1013300040098140686801320143696055F8320014
:1013400005EBC2010839C3E9020145F83230C36038
:10135000BDE70022D0E70122CEE7DCF80C60CE60CA
:10136000B160DAE7B0F5206F4FEA502214D282095B
:101370003832511C05EBC20655F831108E4225D18A
:101380000120921000FA02F2686802436A60C3E921
:101390000216B360CB609AE7142A01D85B32E8E703
:1013A000542A02D8020B6E32E3E7B2F5AA7F02D8C4
:1013B000C20B7732DDE740F254518A429ABF820C69
:1013C0007C327E22D5E789688E4204D04A6822F0BA
:1013D00003028242F7D8CE68D9E7F8BD3C0100206D
:1013E000380100204C0800204401002001F10B03CB
:1013F000162B2DE9F74F054606D933F0070704D51C
:101400000C232B600024A3E11027B942F8D828460A
:1014100000F026FAB7F5FC7FAF4E37D207F108028D
:101420003244A2F1080154688C424FEAD70302D13A
:10143000D468A24210D06368D4E9021223F00303F7
:10144000CA60234491605A6842F001025A602846FB
:1014500000F00CFA08347BE1023334699F498C4276
:1014600077D0626822F0030CACEB07000F2848DD50
:10147000E21940F0010347F001076760C6E9042262
:10148000C2E90211536044F80C00E0E77B0A2AD05D
:10149000042B12D8BB0938335A1C06EBC202A2F146
:1014A000080C5468644506D0626822F00302D01B21
:1014B0000F281CDD013B0133CFE7142B01D85B3330
:1014C000EAE7542B02D83B0B6E33E5E7B3F5AA7F6E
:1014D00002D8FB0B7733DFE740F25452934204D833
:1014E000BB0C7C33D8E73F23D6E77E23D4E7002824
:1014F000E16804DBA368D9608B60A318A3E70C46FE
:10150000D0E70028C6E9041107DBA444DCF8043066
:1015100043F00103CCF8043099E7BCF5007F706814
:1015200080F095804FEADC024FEA5C1E4FF0010C20
:1015300001320CFA0EFC4CEA0000706056F832C022
:1015400006EBC2000838C4E902C046F83240CCF8C5
:101550000C409810012282407068904226D31042BD
:1015600006D123F003035200104203F10403FAD022
:1015700006EBC308C1469E46D9F80C404C4540F0E6
:10158000B9800EF1010E1EF0030F09F10809F3D125
:10159000980740F0E380736823EA02037360706881
:1015A0005200904202D3002A40F0E580D6F808A00D
:1015B000DAF8043023F00309B94504D3A9EB070294
:1015C0000F2A00F34181464B196810313944082035
:1015D000019100F079FA434A0199136801331FBF62
:1015E00001F1FF3109184342194080462846019114
:1015F00000F046FA421C0AEB090B044600F0F780A3
:1016000083450199374A02D9B24540F0F080364B04
:101610001868A34500EB010EC3F800E008F1FF3C99
:1016200040F0AB801BEA0C0F40F0A780B268494441
:1016300041F0010151602D4A1B6811688B4288BF3F
:1016400013602B4A11688B4288BF1360CFE0BCF552
:10165000206F4FEA5C2218D24FEA9C12383202F116
:10166000010E06EBC20856F83EE0F0452BD1921071
:101670004FF0010C0CFA02F202437260C4E902E876
:10168000C8F80840CEF80C4063E7142A01D85B3252
:10169000E5E7542A03D84FEA1C326E32DFE7B2F591
:1016A000AA7F03D84FEADC327732D8E740F2545EA3
:1016B00072459ABF4FEA9C427C327E22CFE7DEF829
:1016C00008E0F04505D0DEF8042022F00302624570
:1016D000F5D8DEF80C80D1E73C0100204401002061
:1016E0004C080020340100201C080020480800207D
:1016F000440800206068D4F80CC020F00300A0EB80
:10170000070ABAF10F0F12DDA368E21947F00107CB
:101710006760C3F80CC0CCF808304AF00103C6E992
:101720000422C2E90211536044F800A08FE6BAF126
:10173000000F11DB2044436843F00103436054F879
:10174000083F2846C3F80CC0CCF8083000F08EF8EB
:10175000204603B0BDE8F08F64460FE758F808094B
:10176000404503F1FF333FF413AF18E70433520051
:101770001042FBD0FCE67346FAE7106801301BBF4D
:10178000A4EB0B0B0BEB0E0214601A6014F0070BAA
:101790001ABFCBF1080024185846621802EA0C015F
:1017A0008044A8EB010808EA0C084146284601924B
:1017B00000F066F9431C019A284B07D1BBF1000FDA
:1017C00023D0ABF1080010444FF000081A68B46051
:1017D000001B4044424440F00100B2451A60606082
:1017E0003FF429AFB9F10F0F12D801236360B3683A
:1017F0005B6823F00303BB42A3EB070201D30F2A6C
:1018000022DC284600F032F8FCE51046D846DDE739
:10181000DAF80420A9F10C0929F0070902F0010205
:1018200042EA0902CAF8042005210AEB0902B9F1CB
:101830000F0FC2E901117FF6FEAE0AF1080128463A
:10184000FFF714FD054BF6E6B46847F001032744A3
:1018500042F001026360B7607A60F8E51C0800207E
:101860000148FFF79BBC00BF140800200148FFF7A8
:1018700096BC00BF1408002070B505460C46B1B1F7
:1018800018B1436B0BB9FFF79BFB636EDE0705D402
:10189000A389980502D4A06DFFF780FCB4F90C3041
:1018A00043B9636ED90702D4A06DFFF778FC002618
:1018B000304670BD2146284600F034F8E36A0646FB
:1018C00033B1E169284698470028B8BF4FF0FF368A
:1018D000A3891A0603D521692846FFF7C7FC216BA7
:1018E00041B104F14003994202D02846FFF7BEFC03
:1018F00000232363616C21B12846FFF7B7FC002366
:101900006364FFF751FB0023A381636EDB0702D4FE
:10191000A06DFFF744FCA06DFFF73FFCFFF74AFB0B
:10192000C6E700002DE9F0410546B1F90C000607B5
:101930000C4657D440F400638B814B68002B02DCCB
:10194000CB6B002B4CDDA66A002E49D0002310F48F
:1019500080522F68E1692B6034D0226DA38959072A
:1019600005D56368D21A236B0BB1E36BD21A00233F
:10197000A66AE1692846B047431C06D12A681D2A99
:1019800048D82B4B1341DE0744D4B4F90C3023F470
:101990000062A28100226260D9042269226004D51B
:1019A000421C01D12B6803B92065216B2F60B9B1AE
:1019B00004F14003994202D02846FFF757FC002368
:1019C00023630DE001232846B0470246501CC5D1D1
:1019D0002B68002BC2D01D2B01D0162B1AD12F60E3
:1019E00000201EE00F69002FFAD083070E6808BFA1
:1019F0004B690F6018BF0023A6EB07088B60B8F196
:101A0000000FEDDDE169666A43463A462846B04775
:101A1000002808DCB4F90C3043F04003A3814FF0F8
:101A2000FF30BDE8F0810744A8EB0008E7E700BFFE
:101A3000FEFFBFDF38B50C46054618B1436B0BB946
:101A4000FFF7BEFAB4F90C00B8B1636EDB0704D43B
:101A5000810502D4A06DFFF7A1FB28462146FFF7C0
:101A600061FF636EDA07054605D4A3899B0502D49E
:101A7000A06DFFF794FB284638BD0546FBE7000044
:101A800038B5064D0023044608462B6000F056FB8F
:101A9000431C02D12B6803B1236038BD100800201D
:101AA00038B5074D074C641BA4101CB9BDE838407D
:101AB00004F0B0BA013C55F824309847F5E700BF70
:101AC000E4630008E8630008082808B506D000F0C1
:101AD00047F8162303604FF0FF3008BD8020FCE775
:101AE0002DE9F047DFF874A00646DAF800009846C2
:101AF0000F469146FFF752FB164B1C680CB9164C6B
:101B00001C606568DAF800001F2D05DDFFF747FB54
:101B10004FF0FF30BDE8F0879EB104EB8501012254
:101B2000C1F88890D4F88831AA401343C4F88831AA
:101B3000022EC1F8088102BFD4F88C311343C4F8D7
:101B40008C316B1C0235636044F82570FFF727FB6E
:101B50000020DFE718080020500800203001002096
:101B6000014B1868704700BF0C000020034AD2F8F0
:101B7000883043F47003C2F88830704700ED00E00D
:101B80000E4A136843F4807313600C4B1B6813F404
:101B9000806FFAD0094B9A6822F003029A609A6823
:101BA00042F001029A60054B9B6803F00C03042B82
:101BB000F9D1034B034A1A60704700BF001002407E
:101BC000440500200024F400024AD36C43F00303D0
:101BD000D364704700100240830103F4705303F193
:101BE000904300F00F00D96840000322824021EAB0
:101BF0000201D960196821EA02021A60704710B523
:101C0000830103F4705303F1904300F00F0CC0F311
:101C1000C002083253F8224000F0070080004FF065
:101C20000F0E0EFA00FE24EA0E0443F8224053F889
:101C3000224081400C4343F8224019684FEA4C028D
:101C40000320904021EA000119601968022000FA7F
:101C500002F20A431A6010BD830103F4705303F1CA
:101C6000904300F00F00DA6840000321814022EA2F
:101C70000102DA60DA68012181400A43DA607047C4
:101C80000E4B9A6D42F001029A659B6D4FF08043B6
:101C90001A6842F080021A60094A12680949A1FBD9
:101CA0000212920C013A9A624FF0FF32DA6201227C
:101CB0005A611A6842F001021A607047001002402F
:101CC0004405002083DE1B434FF080435A6A4FF0E7
:101CD00080435B6A9B1A8342F9D3704708B507219A
:101CE0000220FFF78CFF03210F20FFF788FF094B2D
:101CF0009A6D42F400329A659B6D074B1B6803F5A1
:101D00006143064AA2FB03231B0C054AD3600D2343
:101D1000136008BD0010024044050020C5B3A29125
:101D200000440040044BDB6913F0800FFAD0C2B2CC
:101D3000014B1A85704700BF00440040054B082244
:101D40001A62044BDB6913F0200FFAD0014B988C18
:101D5000C0B270470044004070B505460E460024EE
:101D600000E01C46FFF7EAFFC0B228550A2805D05C
:101D70000D28F7D0631CB342F3DBF3E700232B55A8
:101D8000204670BD08B5184B1A6E42F480321A66B0
:101D90001B6E164B1A68164BA3FB0232920C013ACB
:101DA000144B9A620021D96201225A619A6922F089
:101DB00003029A619A6922F0807222F4E04242F4AE
:101DC000C0429A619A6942F400629A611A6A42F0CA
:101DD00010021A6299635A6C42F400425A640E214E
:101DE0000320FFF70CFF08BD00100240440500204F
:101DF00083DE1B4300400140154A136B23F00F03A1
:101E00001363136B23F4F86343EA80131363092805
:101E100014D81146536900EB400007228240134357
:101E20004B610B4A936843F004039360084B1B68B3
:101E300013F0040FFAD0064B186C704704494B6935
:101E40000A3800EB40000722824013434B61E8E769
:101E50000000045000B583B00D4A936843F480033A
:101E600093600C20FFF730FF0020FFF7C5FF0190C3
:101E7000084BB3F8AA0040F6B83303FB00F0019B0F
:101E800090FBF3F0044B186003B05DF804FB00BF57
:101E9000000304500075FF1F4805002010B5234BB8
:101EA000D3F8882042F04052C3F88820DA6C42F41C
:101EB0000052DA64DB6C1E4A936843F4403393604B
:101EC0001C4CA36823F00053A360A36843F0805325
:101ED000A3601420FFF7F8FEE36823F01803E36023
:101EE000E36823F02003E360E36823F40053E36036
:101EF000A36843F00043A3600E4B9B68002BFBDB01
:101F00000A20FFF7E1FE0B4B1A6842F001021A604B
:101F10009A6842F001029A60064B1B6813F0010FA9
:101F2000FAD0FFF797FF044B186010BD0010024075
:101F30000003045000000450480500202C4BDA6CCC
:101F400042F00102DA64DA6C4FF090410A6822F440
:101F5000405242F400520A600A6A22F0706242F073
:101F600060620A621A6E42F400321A661B6E214BDE
:101F700000229A62204A1268A1F19C61A1F5842195
:101F8000A1F27D11A1FB0212920C4FF4AF7102FB82
:101F900001F11A48A0FB01C14FF4AA6C0CFB02F23C
:101FA000A0FB0202920902EB9112013ADA629A69ED
:101FB00022F003029A619A6922F4803222F07002C0
:101FC00042F060029A619A6942F008029A61DA6806
:101FD00042F48072DA601A6A42F001021A625A6CA4
:101FE00042F400425A641A6842F001021A607047D3
:101FF000001002400044014044050020D34D62100F
:10200000184B9A6C42F001029A649B6C164BD3F801
:10201000A82022F4700242F48002C3F8A820002213
:10202000DA66124A5A67124A9A6741F6C8021A6774
:10203000DA6E42F48062DA66DA6E42F48072DA6650
:10204000DA6E42F01002DA66DA6E42F08002DA6688
:10205000DA6E42F02002DA66DA6E42F00102DA66E7
:10206000704700BF001002400000024034440140AD
:10207000E009002008B5FFF761FFFFF7C1FF08BDC9
:1020800000B595B0FFF77CFDFFF79EFDFFF7F8FD6B
:10209000FFF724FEFFF7EEFFFFF700FF0C20FFF72E
:1020A0009BFD0C20FFF7D8FD054800F0EDF850210E
:1020B0006846FFF751FE6946024800F08DF8F6E7E2
:1020C00020600008306000080120704708B5FFF765
:1020D00047FD162303604FF0FF3008BD08B54FF0F1
:1020E000FF31FFF7F3FFFEE770B50C4616460025FB
:1020F00006E0AFF30080214601F8010B01350C46E4
:10210000B542F6DB304670BD70B50C46164600256C
:1021100004E014F8010BFFF705FE0135B542F8DBCA
:10212000304670BD4FF0FF3070474FF400534B60A6
:1021300000207047012070470020704710B503460B
:102140000C4A0D490D48006840B10C480068034432
:10215000521A934206D8094A136010BD0748084C2A
:102160000460F2E7FFF7FCFC0C2303604FF0FF3044
:10217000F3E700BF0000012000040000703B0020D6
:10218000783B00200D488546FFF7F0FC0C480D49D0
:102190000D4A002302E0D458C4500433C4188C42C2
:1021A000F9D30A4A0A4C002301E013600432A24228
:1021B000FBD3FEF7CDFFFFF763FFFEE70000012032
:1021C00000000020B8060020E8630008B8060020E0
:1021D000743B0020FEE700000FB407B5064904ABCE
:1021E000086853F8042B8168019300F055F803B098
:1021F0005DF804EB04B070470C00002030B50546D4
:1022000089B008460C46FDF7EBFF1E4B06930123F1
:10221000CDE904400793184404AB019302230293D1
:102220006B6BAC68039013B92846FEF7C9FE636E6A
:10223000DB0705D4A389980502D4A06DFEF7AEFF95
:10224000B4F90C30990406D443F40053A381636EAF
:1022500023F400536366284601AA214601F082FF59
:10226000636E00280CBF0A254FF0FF35DA0705D44E
:10227000A3899B0502D4A06DFEF791FF284609B003
:1022800030BD00BFCB630008024B01461868FFF762
:10229000B5BF00BF0C0000202DE9F04FD3B08B4636
:1022A00090461C461E46039002F09CF90368169364
:1022B0001846FDF795FF039B0D9023B15B6B13B997
:1022C0000398FEF77DFEDBF86430DA0707D4BBF82D
:1022D0000C309B0503D4DBF85800FEF75FFFBBF919
:1022E0000C309F0409D443F40053ABF80C30DBF8F6
:1022F000643023F40053CBF86430BBF80C301D0776
:1023000002D5DBF81030C3B90398594602F076F8CD
:1023100098B1DBF86430D80706D54FF0FF330F9340
:102320000F9853B0BDE8F08FBBF80C309905F4D48A
:10233000DBF85800FEF733FFEFE7BBF90C3003F092
:102340001A020A2A16D1BBF90E20002A12DBDBF88A
:102350006420D20705D49B0503D4DBF85800FEF7B0
:102360001EFF039823464246594653B0BDE8F04F3E
:1023700001F0BEB99FED927B0023CDE927338DEDAF
:102380000A7BCDE9183329AC269404930993129360
:1023900017930F9343461D4613F8012B0AB1252AC4
:1023A000F9D1B5EB08070DD0289B3B442893279B18
:1023B0000133072BC4E90087279375DC08340F9B92
:1023C0003B440F932B78002B01F04F8100226B1CB4
:1023D0008DF87B204FF0FF390E92154613F8012B34
:1023E00006920C93069B203B5A2B00F2AA85DFE84D
:1023F00013F09D00A805A805A500A805A805A80537
:102400008500A805A805A800B200A805AF00B40083
:10241000A805CE00D100D100D100D100D100D1005B
:10242000D100D100D100A805A805A805A805A805D8
:10243000A805A8054601A80507011A01460146019D
:102440004601A805A805A805A805E200A805A80555
:10245000A304A805A805A805ED04A8050E05A80570
:10246000A8053005A805A805A805A805A805A8057C
:10247000A805A8054601A80507011C01460146015B
:102480004601ED001C010101A805FA00A80587041A
:10249000A504DC040101A805ED049B001005A805B6
:1024A000A8056500A8059B00039826AA594601F0D7
:1024B0005FF9002840F04D8129AC80E7424B199329
:1024C00015F0200300F0C884073626F007031A46EB
:1024D0005F6852F8086B0792EB070AD556EA0703C4
:1024E00007D030238DF87C30069B8DF87D3045F089
:1024F000020525F48065022300F02EBC039802F04B
:1025000071F8436817931846FDF76AFE1290039816
:1025100002F068F883680993129B2BB1099B1BB1E9
:102520001B780BB145F480650C9B57E79DF87B3019
:10253000002BF9D120238DF87B30F5E745F001051C
:10254000F2E756F8043B0E93002BEDDA5B420E9354
:1025500045F00405E8E72B23EDE70C9B13F8012B6E
:1025600006922A2A0FD156F8042B0C9342EAE279FC
:10257000DAE701FB092913F8012B0692069A303A93
:10258000092AF6D92DE74FF000090A21F6E745F0B0
:102590008005C9E700220C9B0E920A21069A0E982C
:1025A000303A01FB00220E9213F8012B0692303ACA
:1025B000092AF3D915E745F00805B5E7AFF3008020
:1025C0000000000000000000506000080C9B1B7819
:1025D000682B01BF0C9B01330C9345F4007518BFA9
:1025E00045F04005A0E70C9B1B786C2B05D10C9B9C
:1025F00001330C9345F0200596E745F0100593E76D
:10260000324652F8043B8DF8E430002307928DF8EF
:102610007B309A464FF0010910931F4608931E46DF
:102620000DF1E408DAE145F01005AF0612D50736E2
:1026300026F007031A465F6852F8086B0792002FCE
:1026400006DA76424FF02D0367EB47078DF87B30B3
:10265000012384E33346EE0653F8047B079302D547
:102660003E46FF17EBE7680603D53EB247F3C03797
:10267000E5E7A905F4D57EB247F3C017DFE70736D3
:1026800026F00703B3EC027B8DED0A7B07930A9BD0
:102690001A930B9B23F000431B93DDE91A01854B32
:1026A0004FF0FF32FEF74AFA10BBDDE91A01814B09
:1026B0004FF0FF32FEF724FAD0B9DDE90A0100221B
:1026C0000023FEF713FA10B12D238DF87B307A4AE0
:1026D0007A4B069925F080054729D4BF9046984645
:1026E0004FF0000A4FF00309CDF840A000F0F8BF0A
:1026F000DDE90A2310461946FEF720FA824640B16A
:102700000B9B6F4A002BBCBF2D238DF87B306D4B8C
:10271000DFE7069B612B2ED0412B2ED15823302290
:10272000B9F1630F8DF87C208DF87D3045F00205FE
:1027300040F3AE80039809F10101FEF757FE804691
:10274000002840F0AA80BBF80C3043F04003ABF8FF
:102750000C30DBF86430D90707D4BBF80C309A058D
:1027600003D4DBF85800FEF71AFDBBF80C305B060B
:102770007FF5D6ADD1E57823D1E7B9F1FF3F00F081
:102780008E80069B23F02003472B05D1B9F1000F63
:1027900002D1CA464FF0010945F4807311930B9B97
:1027A000002B7FDA0A9B14930B9B03F100431593D4
:1027B0002D231C93069B23F02003412B089340F00C
:1027C000E78120A89DED140B01F01EFF00224FF0C1
:1027D0007F5351EC100BFDF717FF02460B46CDE976
:1027E000042300220023FEF777F908B10123209388
:1027F000354A364B0699612918BF1A46109209F1DD
:10280000FF374646DDE90401314B0022FDF7FCFEAF
:1028100002460B46CDE90423FEF7A6F91390FDF717
:1028200089FE02460B46DDE90401FDF735FD02464F
:102830000B46CDE90423139A109B9B5C06F8013BE1
:102840007A1C06D07B1E1D9300220023FEF744F95C
:1028500070B3DDE904011F4B0022FEF765F9002883
:102860003AD1DDE904011B4B0022FEF735F910B126
:10287000139BDB0730D43346F1193020CA1A002AE3
:1028800080F283817B1C0137B8BF00231E4437E0F0
:102890004FF0000A0DF1E4087EE782467CE74FF036
:1028A000060979E79DED0A7B00238DED147B80E717
:1028B0001D9FA7E7FFFFEF7F40600008446000080E
:1028C000486000084C600008506000086160000823
:1028D000000030400000E03F109B2496D97B302060
:1028E000249A531E249312F8013C8B4200F04A8133
:1028F000392B0BBF109B01339B7ADBB202F8013CF2
:10290000A6EB08030493089B209E472B40F0898187
:10291000F11C02DBB14580F2A781069B023B0693C6
:1029200006999DF8182021F02001412908BF0F3297
:1029300006F1FF3306BFD2B201210021002B209304
:10294000B8BFC6F101038DF88820B4BF2D222B2219
:10295000092B8DF8892040F37A810DF197000A2721
:102960000246B3FBF7F607FB1631303102F8011CC3
:102970001946632900F1FF303346F1DC3033911EF4
:1029800000F8013C0DF189060B460DF197008342DA
:10299000C0F058810DF199039B1A814288BF002332
:1029A0000DF18A021A4422ABD31A049A1893012A11
:1029B00003EB020901DCEA0701D50D9B994425F4DC
:1029C0008065002745F48073119308973E461C9B51
:1029D000002B40F091810023119D1093109B4B45DB
:1029E000B8BF4B4611939DF87B3013B1119B013357
:1029F000119315F002031C931EBF119B0233119318
:102A000015F084031D9322D10E9B119A9B1A002B63
:102A100013931CDD1398DDE9272310289F482060BD
:102A200002F1010204F1080100F39782139860603B
:102A30000344072ACDE9272340F3A482039826AA5A
:102A4000594600F095FE002840F0ED8529AC9DF830
:102A50007B20289B6AB10DF17B0222600122134486
:102A60002893279B62601344072B279300F38C82E3
:102A700008341C9A289B62B11FAA226002221344C8
:102A80002893279B62600133072B279300F38682EC
:102A900008341D9B802B22D10E9B119A9B1A002B70
:102AA00013931CDD1398DDE9272310287C48206050
:102AB00002F1010204F1080100F37A8213986060C8
:102AC0000344072ACDE9272340F38782039826AAE7
:102AD000594600F04DFE002840F0A58529AC109B1A
:102AE000A3EB0903002B10931CDD1098DDE92723CD
:102AF00010286B48206002F1010204F1080100F384
:102B00006E82109860600344072ACDE9272340F3C2
:102B10007B82039826AA594600F02AFE002840F03E
:102B2000828529AC289B1093E80500F173824B4401
:102B30002893279B0133072BC4E90089279300F3CF
:102B4000AF820834680700F15085DDE90E23119942
:102B50008A42ACBF9B185B180F93289B3BB103982C
:102B600026AA594600F004FE002840F05C850023A8
:102B70002793BAF1000F40F07285079E29ACDDF86B
:102B8000308007E402F8010CAAE603F8010B75E6B1
:102B9000089B462B05D0452B1AD109F101060221CD
:102BA00001E04E46032124AB019321AB00939DED40
:102BB000140B20AB0398324601F0E6FD089B472B2F
:102BC000804619D1E80705D4249BA3EB080399E6B6
:102BD0004E46E4E708EB0607DDE914010022002376
:102BE000FDF77AFF00B124973022249B9F42EBD956
:102BF000591C24911A70F8E7089B462B00EB060736
:102C0000EAD10378302B09D1DDE914010022002339
:102C1000FDF762FF10B9C6F101062096209B1F4404
:102C2000DAE7089B462B7FF47BAE05F00103002E0C
:102C300043EA090325DD7BB30D9BF3189944662312
:102C4000069333E013F8017B06F8017F9FE641B954
:102C500030228DF88A200DF18B02303302F8013BCF
:102C6000A1E60DF18A02F8E7049BB3420DDD049B57
:102C70000D9A002E03EB02090CDCC6F10103994406
:102C800008E07BB10D9B0133D8E7EB0721D50D9B05
:102C900006EB03096723D3E7B146D0E78460000859
:102CA00074600008662306934FF0010915F48063F1
:102CB00008931FD00027002E08977FF788AE099B46
:102CC0001B78FF2B07D1089B129A3B4402FB039908
:102CD0007DE6B146DEE7B342F5DAF61A099B5B788A
:102CE00033B1089B01330893099B01330993E6E74D
:102CF0000137E4E7089F6AE62D238DF87B306AE60A
:102D0000AF0607D50F9A33680F99D217C3E900129F
:102D1000043634E7E80603D533680F9A1A60F7E7FC
:102D2000690603D533680F9A1A80F1E7AA05F3D52F
:102D300033680F9A1A70EBE745F0100515F0200381
:102D400020D0073626F007031A465F6852F8086B52
:102D5000079225F48065002300228DF87B20B9F1CD
:102D6000FF3F00F0918425F08002089256EA0702A6
:102D700040F08F84B9F1000F00F0DB80012B40F0B0
:102D80008B8483E0324615F0100752F8046B0792EB
:102D900001D01F46DDE715F0400301D0B6B2D8E7F9
:102DA00015F40077D5D0F6B2F3E73346782253F81E
:102DB000046B079347F63003ADF87C30934B1993BF
:102DC000002745F0020502230692C5E73346B9F114
:102DD000FF3F53F8048B07934FF000068DF87B609C
:102DE0000FD04A4631464046FDF702FA8246002897
:102DF0003FF47AACA0EB0809B24610963746089625
:102E0000ECE54046FDF7ECF9B24681466CE445F04E
:102E1000100515F0200309D0073626F007031A46DF
:102E20005F6852F8086B0792012395E7324615F068
:102E3000100752F8046B079201D01F46F4E715F013
:102E4000400301D0B6B2EFE715F40077ECD0F6B24C
:102E5000F3E76F4BFFF733BB324615F0100752F81C
:102E6000046B079202D01F46FFF736BB15F04003F4
:102E700002D0B6B2FFF730BB15F400773FF42CABAD
:102E8000F6B2F0E70A2E77F1000307D23036F6B239
:102E90008DF847610DF2471800F01ABC0023049327
:102EA000089B03F4806352AD10930A22002330463E
:102EB0003946FDF781FE049B119001330493109B6A
:102EC00030328A4605F1FF3805F8012CD3B1099B51
:102ED000049A1B789A4215D1FF2A13D00A2E77F153
:102EE00000030FD3129B1799A8EB03081A4640461C
:102EF00001F05EFB099B5B781BB1099B01330993D1
:102F0000002304930A2E77F10007C0F0E183119E9D
:102F100057464546C9E706F00F03199A3609D35CB0
:102F200008F8013D46EA07763F0956EA0703F2D161
:102F3000CEE31BB9ED0701D53026A9E70DF5A4783E
:102F4000C6E3069B002B00F090838DF8E43000234D
:102F50008DF87B300796FFF75CBB10200344072AEF
:102F6000CDE92723606008DD039826AA594600F0C2
:102F7000FFFB002840F0578329A9139B103B1393B4
:102F80000C4647E50C4662E5039826AA594600F030
:102F9000EFFB002840F0478329AC6AE5039826AA96
:102FA000594600F0E5FB002840F03D8329AC70E570
:102FB00010200344072ACDE92723606008DD039829
:102FC00026AA594600F0D4FB002840F02C8329A9FA
:102FD000139B103B13930C4664E50C467FE51020D1
:102FE0000344072ACDE92723606008DD039826AA59
:102FF000594600F0BDFB002840F0158329A9109B1D
:10300000103B10930C4670E50C468BE550600008B1
:1030100061600008069B652B40F34582DDE90A01EB
:1030200000220023FDF758FD00286AD0734B23606F
:1030300001236360109B01332893279B0133072BE7
:10304000279337DC0834209B049A934202DBE9077C
:103050007FF578AD169B23600D9B0D9A6360289BCE
:1030600013442893279B0133072B27932CDC083428
:10307000049B5E1E002E7FF765AD614F4FF0100878
:10308000DDE92732102E03F1010304F10801276066
:1030900024DC6660072B1644CDE9273640F3A28274
:1030A000039826AA594600F063FB002840F0BB8233
:1030B00029AC47E5039826AA594600F059FB002899
:1030C00040F0B18229ACBEE7039826AA594600F029
:1030D0004FFB002840F0A78229ACC9E71032072B2C
:1030E000CDE92732C4F8048008DD039826AA5946A2
:1030F00000F03EFB002840F0968229A9103E0C46C5
:10310000BEE7209B002B7DDC3C4B236001236360EA
:10311000109B01332893279B0133072B279346DC11
:1031200008340499209B289A0B4305F001010B43B6
:103130003FF408AD169B23600D9B63601A44279BE8
:1031400028920133072B27933BDC04F10803209ED0
:10315000002E1BDA2A4F76421A461024DDE927108A
:10316000102E01F1010103F10803176033DC5660F2
:1031700007290644CDE9271608DD039826AA5946F3
:1031800000F0F6FA002840F04E8229AB049A049928
:103190005A60289AC3F800800A442892279A01327C
:1031A000072A27923FF77CAF03F10804CAE403988B
:1031B00026AA594600F0DCFA002840F0348229ACF7
:1031C000AFE7039826AA594600F0D2FA002840F04B
:1031D0002A8229ABBBE710300729CDE927105460BC
:1031E00008DD039826AA594600F0C2FA002840F0EC
:1031F0001A8229AB103E1A46B0E700BF7260000881
:1032000074600008049B43441393049BB342A8BF1B
:103210003346002B99460BDDC4E90083109B4B44D9
:103220002893279B0133072B279300F389800834C9
:10323000B9F1000FACBFA6EB09033346002B069390
:103240001CDDDFF864930698C4F80090DDE92723BD
:10325000102802F1010204F108017BDC0344072A73
:10326000CDE92723606040F38A80039826AA594657
:1032700000F07EFA002840F0D68129AC6A05B044FF
:1032800008D5089B002B7CD1002F7CD1139B98453F
:1032900028BF9846209B049A934201DBEB070ED58A
:1032A000169B23600D9B0D9A6360289B1344289303
:1032B000279B0133072B279300F3E1800834049BFD
:1032C000209FDF1B139BA3EB08039F42A8BF1F4651
:1032D000002F289B0ADD3B442893279B0133072BB3
:1032E000C4E90087279300F3D4800834209E049B10
:1032F000002FA3EB0606A8BFF61B002E7FF722AC1B
:10330000A94F4FF01008DDE92732102E03F1010319
:1033100004F1080127607FF7BCAE1032072BCDE91E
:103320002732C4F8048008DD039826AA594600F025
:103330001FFA002840F0778129A9103E0C46E2E7E9
:10334000039826AA594600F013FA002840F06B8132
:1033500029AC6DE710200344072ACDE927236060DC
:1033600008DD039826AA594600F002FA002840F02A
:103370005A8129A9069B103B06930C4663E70C462D
:103380007CE7002F4BD0013F179B2360129B129AC2
:103390006360289B13442893279B0133072B2793B3
:1033A00044DC0834099B93F80090139BA3EB0803BB
:1033B0009945A8BF9946B9F1000F289B09DD4B44F8
:1033C0002893279B0133072BC4E90089279337DC17
:1033D0000834099B1E78B9F1000FA8BFA6EB0906B7
:1033E000002E18DDDDE927326F482060102E03F132
:1033F000010304F108012DDC6660072B1644CDE9BA
:1034000027363ADD039826AA594600F0B1F900287C
:1034100040F0098129AC099B1B78984431E7099B4E
:10342000013B0993089B013B0893ADE7039826AA4B
:10343000594600F09DF9002840F0F58029ACB1E72D
:10344000039826AA594600F093F9002840F0EB8033
:1034500029ACBEE710200244072BCDE9273260607B
:1034600008DD039826AA594600F082F9002840F0AA
:10347000DA8029A9103E0C46B4E70C46CBE7039846
:1034800026AA594600F074F9002840F0CC8029ACF7
:1034900015E7039826AA594600F06AF9002840F07B
:1034A000C28029AC22E70499109B279A012903F1D5
:1034B000010302F1010204F1080602DCEF0740F10A
:1034C00086800121072ACDE92723C4F800806160A6
:1034D00008DD039826AA594600F04AF9002840F072
:1034E000A28029AE169B33600D9B0D9A7360289BBA
:1034F00013442893279B0133072B279333DC08368B
:10350000049BDDE90A015C1E00220023DDE9279708
:10351000FDF7E2FA00282FD108F10102C6E90024E4
:10352000049A09F10103013F1744072BCDE927371E
:1035300056DD039826AA594600F01AF9002872D1E0
:1035400029AE22AB3360189B189A7360289B1344F2
:103550002893279B0133072B27933FF7A1AD06F153
:103560000804FFF7EFBA039826AA594600F000F9BD
:10357000002858D129AEC3E7049B012BE1DD0A4F97
:103580004FF01008DDE92732102C03F1010306F19A
:10359000080137600ADC7460072B1444CDE9273436
:1035A000C7DC0E46CDE700BF746000081032072B61
:1035B000CDE92732C6F8048006DD039826AA5946CD
:1035C00000F0D6F878BB29A9103C0E46DAE70121B5
:1035D000072ACDE92723C4F800806160B1DDA8E7A0
:1035E0000836AEE70C46FFF7ADBA0E9B119A9D1A4E
:1035F000002D7FF7AAAA3D4E1027DDE92732102DB6
:1036000003F10103266018DC6560072B1544CDE942
:1036100027357FF79AAA039826AA594600F0A8F8FA
:1036200000283FF492AABAF1000F3FF492A8039841
:103630005146FDF71BFEFFF78CB81032072BCDE982
:103640002732676002DC0834103DD6E7039826AACB
:10365000594600F08DF80028E5D129ACF4E703982D
:103660005146FDF703FEFFF788BA289B1BB90023DC
:103670002793FFF76EB8039826AA594600F078F80A
:103680000028F4D0FFF765B856EA070208953FF422
:1036900075AB012B3FF4F6AB022B0DF5A4783FF48C
:1036A0003AAC06F00703F60846EA4776FF083033DF
:1036B00056EA0701424608F8013DF2D10899CE07C3
:1036C00006D5302B04D0302308F8013CA2F10208C3
:1036D00052AB089DCDF840904FF0000AA3EB0809CB
:1036E0005746CDF820A05646FFF778B98460000809
:1036F000F0B51F468B89ADF26C4D23F00203ADF897
:103700000C304B6E1993CB89ADF80E30CB69079313
:103710004B6A09931AAB009304934FF480631546E8
:1037200006460293059316A800230C460693FDF760
:1037300033FD2A463B4669463046FEF7ADFD051E81
:1037400007DB69463046FEF775F9002818BF4FF0D1
:10375000FF35BDF80C3016985B0642BFA38943F0D5
:103760004003A381FDF719FD28460DF26C4DF0BD15
:103770002DE9F84F936880460E46144643B34B6ECE
:103780009D0422D51568A068083528B90023A360D8
:1037900000236360BDE8F88F55E902B74FF00009D8
:1037A0004FEA970ACA4505DCA36827F00307DB1B2D
:1037B000A360E8E75BF829103246404600F0B5FE0A
:1037C000431CE3D009F10109ECE700F0CBFCDDE795
:1037D0001846DDE72DE9F04FBBB00F4693461C4677
:1037E0001D46009018B1436B0BB9FDF7E9FB7B6EEA
:1037F000DB0705D4BB899E0502D4B86DFDF7CEFC6E
:10380000B7F90C30980406D443F40053BB817B6EA7
:1038100023F400537B66BB89190701D53B69ABB91B
:103820000098394600F0EAFD80B17B6EDA0706D5D4
:103830004FF0FF33039303983BB0BDE8F08FBB8993
:103840009B05F5D4B86DFDF7AAFCF1E7B7F90C308C
:1038500003F01A020A2A14D1B7F90E20002A10DB4D
:103860007A6ED60704D49D0502D4B86DFDF797FC97
:10387000009823465A4639463BB0BDE8F04F00F069
:1038800031BC0023CDE90F33CDE9053311AE0E96DF
:103890000793099303935B461C4613F8012B0AB167
:1038A000252AF9D1B4EB0B080DD0109B434410939B
:1038B0000F9B0133072BC6E900B80F9375DC083660
:1038C000039B434403932378002B00F0CD83002314
:1038D0004FF0FF32CDE9012301348DF833309A46A1
:1038E000A3461BF8013BA3F120025A2A00F21683DB
:1038F000DFE812F09A0014031403A2001403140367
:103900001403820014031403A500AF001403AC00D9
:10391000B1001403CD00D000D000D000D000D00002
:10392000D000D000D000D0001403140314031403FB
:1039300014031403140314031403F7000401140301
:1039400014031403140314031403140314031403BF
:10395000140352011403140314039A0114037A028A
:10396000140314039A02140314031403140314031A
:1039700014031403140314031403F70006011403BF
:1039800014031403E0000601F1001403EB00140318
:10399000320154018901F10014039A0198007C025C
:1039A0001403140365001403980000980EAA394606
:1039B000FFF7DEFE002840F0368311AE80E7994A1B
:1039C00005921AF0200200F03182073525F0070534
:1039D000A8466D6858F8084B1AF0010F09D054EA50
:1039E00005021FBF30228DF834208DF835304AF0A3
:1039F000020A2AF4806A12E1009800F0F3FD43689D
:103A000009931846FCF7ECFB0790009800F0EAFDDC
:103A100083680693079B2BB1069B1BB11B780BB1E8
:103A20004AF4806A5C465BE79DF83330002BF9D19D
:103A300020238DF83330F5E74AF0010AF2E755F814
:103A4000043B0293002BEDDA5B4202934AF0040A36
:103A5000E8E72B23EDE75A4612F8013B2A2B12D157
:103A600055F8043B43EAE37301939346DAE7019B7D
:103A700000FB0313019312F8013BA3F13001092964
:103A8000F5D993462FE7002101910A20F5E74AF086
:103A9000800AC7E700215A4602910A200299303B6A
:103AA00000FB0133029312F8013BA3F13001092915
:103AB000F4D9E6E79BF80030682B06BF0BF1010B49
:103AC0004AF4007A4AF0400AACE79BF800306C2BCD
:103AD00004D10BF1010B4AF0200AA3E74AF0100AC7
:103AE000A0E7A846002458F8043B8DF884308DF8F0
:103AF0003340012301930DF18409ABE04AF0100A31
:103B00001AF0200F11D0073525F00705A8466D687B
:103B100058F8084B002D06DA64424FF02D0365EB90
:103B200045058DF83330012348E0A8461AF0100F00
:103B300058F8045B02D02C46ED17EBE71AF0400F63
:103B400003D02CB245F3C035E4E71AF4007FF2D07D
:103B50006CB245F3C015DDE71AF0200F07D0039AC9
:103B60002B680399D217C3E90012043593E61AF0C3
:103B7000100F03D02B68039A1A60F6E71AF0400F73
:103B800003D02B68039A1A80EFE71AF4007FF1D074
:103B90002B68039A1A70E8E74AF0100A1AF020031B
:103BA0001FD0073525F00705A8466D6858F8084B63
:103BB0002AF4806A002300228DF83320019A013212
:103BC00000F05F822AF08002049254EA050240F07D
:103BD0005E82019A002A00F09881012B40F05A82FF
:103BE0003BE1A8461AF0100558F8044B01D01D46D9
:103BF000DEE71AF0400301D0A4B2D9E71AF4007549
:103C0000D6D0E4B2F3E7A84647F63003ADF8343037
:103C100058F8044B034B059300254AF0020A02238F
:103C2000C9E700BF50600008019BA8465C1C4FF02C
:103C3000000558F8049B8DF8335000F0D0801A46E8
:103C400029464846FCF7D4FA044618B1A0EB09030C
:103C500001932C46019BA342B8BF234604939DF8D1
:103C6000333013B1049B013304931AF00203089319
:103C70001EBF049B023304931AF084030A931FD1DE
:103C8000029B049A9D1A002D1ADDA94B3360DDE9D1
:103C90000F2C102D02F1010206F1080000F34E81F5
:103CA0007560072A6544CDE90F2540F35A810098D5
:103CB0000EAA3946FFF75CFD002840F0B48111AE32
:103CC0009DF83310DDE90F3261B10DF1330101339D
:103CD000316001210A44072BCDE90F32716000F3F6
:103CE000428108360899DDE90F3259B10DA9013337
:103CF000316002210A44072BCDE90F32716000F3D5
:103D00003B8108360A9B802B1FD1029B049A9D1A87
:103D1000002D1ADD874B3360DDE90F2C102D02F1E9
:103D2000010206F1080000F330817560072A65443E
:103D3000CDE90F2540F33C8100980EAA3946FFF7E4
:103D400017FD002840F06F8111AE019BE41A002C92
:103D50001ADDDDE90F3277483060102C03F10103E2
:103D600006F1080100F326817460072B1444CDE9A5
:103D70000F3440F3308100980EAA3946FFF7F8FC63
:103D8000002840F0508111AE019B019A7360109B96
:103D9000C6F80090134410930F9B0133072B0F9329
:103DA00000F31B8106F108031AF0040F40F01D8197
:103DB000DDE9022304998A42ACBF9B185B18039388
:103DC000109B3BB100980EAA3946FFF7D1FC0028A2
:103DD00040F0298100230F93454611AE5BE548462C
:103DE000FCF7FEF9019034E74AF0100A1AF02003BC
:103DF00008D0073525F00705A8466D6858F8084B28
:103E00000123D8E6A8461AF0100558F8044B01D053
:103E10001D46F5E71AF0400301D0A4B2F0E71AF40A
:103E20000075EDD0E4B2F3E7434AC9E5A8461AF0BD
:103E3000100558F8044B01D01546CDE51AF04002A4
:103E400001D0A4B2C8E51AF400753FF4C5ADE4B2E0
:103E5000F2E70A2C75F1000306D23034E4B28DF893
:103E6000E7400DF1E70931E13AAB0893049B03F415
:103E700080634FF0000A0A930A2200232046294655
:103E8000FCF79AFE0B4608990B90303201F8012C92
:103E90000A9A01F1FF390AF1010AE2B1069A127891
:103EA000524518D1BAF1FF0F15D00A2C75F1000256
:103EB00011D30893079B0999A9EB03091A464846B1
:103EC00000F076FB069B5A78089B72B1069A013285
:103ED00006924FF0000A0A2C75F10005C0F0F6803A
:103EE0000B9CCDF820901D46C6E79246F3E704F000
:103EF0000F03059A2409D35C09F8013D44EA0574CF
:103F00002D0954EA0503F2D1E0E023B91AF0010FBC
:103F100001D03024A3E70DF1E809D7E0002B00F031
:103F2000A38000248DF884308DF83340A846E0E566
:103F3000A4600008946000086160000810217160AE
:103F4000072A6144CDE90F2108DD00980EAA394601
:103F5000FFF70EFC002866D1604B11A8103D064605
:103F600094E60646ACE600980EAA3946FFF700FC38
:103F7000002858D111AEB5E600980EAA3946FFF7D1
:103F8000F7FB00284FD111AEBCE610217160072A63
:103F90006144CDE90F2108DD00980EAA3946FFF7EC
:103FA000E7FB00283FD14E4B11A8103D0646B2E674
:103FB0000646CAE610200244072BCDE90F32706096
:103FC00006DD00980EAA3946FFF7D2FB58BB11A9AF
:103FD000103C0E46BDE60E46D6E600980EAA3946BF
:103FE000FFF7C6FBF8B911ABDEE6029A0499541A42
:103FF000002C7FF7DDAE394D1026DDE90F21102CA6
:1040000002F101021D601DDC5C60072A0C44CDE951
:104010000F247FF7CDAE00980EAA3946FFF7A8FB14
:1040200000283FF4C5AE7B6ED90705D4BB899A053D
:1040300002D4B86DFDF7B3F8BB895B067FF5FBAB27
:10404000FFF7F6BB1031072ACDE90F215E6002DCD5
:104050000833103CD1E700980EAA3946FFF788FBD9
:104060000028E0D111ABF4E7109B13B900230F93A4
:10407000D9E700980EAA3946FFF77AFB0028F5D059
:10408000D1E754EA0502CDF810A03FF4A6AD012B0C
:104090003FF4DFAE022B0DF1E8093FF428AF04F046
:1040A0000703E40844EA4574ED08303354EA050197
:1040B0004A4609F8013DF2D10499C80706D5302BCC
:1040C00004D0302309F8013CA2F102093AABA3EB7A
:1040D0000903019CDDF810A00193BBE5A460000872
:1040E00094600008F0B51F468B89ADF26C4D23F04B
:1040F0000203ADF80C304B6E1993CB89ADF80E303E
:10410000CB6907934B6A09931AAB009304934FF45E
:104110008063154606460293059316A800230C46B5
:104120000693FDF739F82A463B4669463046FFF7C5
:1041300051FB051E07DB69463046FDF77BFC002876
:1041400018BF4FF0FF35BDF80C3016985B0642BF24
:10415000A38943F04003A381FDF71FF828460DF221
:104160006C4DF0BD93682DE9F74F06460C4691461D
:104170001BB9002003B0BDE8F08F8B89180750D51C
:104180000B69002B4DD0B4F90C30D9F8008013F036
:1041900002076BD113F0010300F09C803846BA4649
:1041A000BB46BBF1000F00F0038150B95A460A210B
:1041B0005046FCF71DF8002800F000810130A0EB0C
:1041C0000A0720682169A56863695F453A4628BFE8
:1041D0005A46884240F2F5801D44AA4240F3F180DD
:1041E00051462A4600F0CAF923682B442360214631
:1041F0003046FDF71FFC002867D17F1B40F0F98097
:1042000021463046FDF716FC00285ED1D9F808306B
:104210005B1BAA44ABEB050BC9F80830002BC0D1DF
:10422000A7E72146304600F0E9F80028ABD04FF070
:10423000FF309FE7D8E900A508F10808D4F824B0BA
:10424000E169002DF6D0BD422B46524628BF3B46C1
:104250003046D847002838DDD9F808301B1A824488
:104260002D1AC9F80830002BE8D182E74FF0000A78
:10427000614F5546E2E7D8E9007A08F10808B4F939
:104280000C302068A268BAF1000FF4D0990563D50C
:10429000524536D813F4906F33D021696569A0EB8D
:1042A000010B05EB450505EBD5750BF101026D1012
:1042B0005244954238BF15465B053DD529463046E8
:1042C000FDF794F848B90C233360A38943F0400309
:1042D000A381ACE71F469A46D1E75A46216901906F
:1042E00000F084F9A289019B22F4906242F08002DE
:1042F000A281236165615B44A5EB0B0523605246F7
:10430000A560524528BF524620680192394600F008
:1043100035F9A368019A9B1AA36023681344554694
:104320002360D9F808305B1B2F44AAEB050AC9F8B3
:104330000830002BA3D11CE72A46304601F016FBBB
:1043400003460028D5D121693046FCF78FFFA389A9
:1043500023F08003A381B6E72369834202D3616916
:10436000514515D9524528BF52463946154600F0E9
:1043700005F9A36822685B1B2A44A3602260002B16
:10438000CFD121463046FDF755FB0028C9D09CE728
:104390006FF00043534528BF5346656A93FBF1F322
:1043A0003A464B433046E169A847051EB9DC8CE725
:1043B000D8E900AB002008F10808F2E60BF101078C
:1043C000FFE6934208DC656AE16952463046A84739
:1043D000051E3FF712AF78E75146019200F0CEF884
:1043E000019AA3689B1AA3602368134423601546AF
:1043F00003E701200AE700BF00FCFF7F38B5294B27
:10440000054618680C4618B1436B0BB9FCF7D8FD8C
:10441000B4F90C30190722D4DA0607D409222A602D
:1044200043F04003A3814FF0FF3033E0580712D52B
:10443000216B41B104F14003994202D02846FCF7B8
:1044400015FF00232363A38923F02403A381002302
:10445000636023692360A38943F00803A381236970
:104460004BB9A38903F42073B3F5007F03D0214631
:10447000284601F06FFCB4F90C3013F001020AD0A9
:104480000022A26062695242A261226942B913F01D
:104490008000C5D138BD990758BF6269A260F4E7B2
:1044A0000020F7E70C0000202DE9F74380460F4677
:1044B000144600F091F8012805461BD17B1EFE2B07
:1044C00018D88DF8047000260DF10409AE4221D0F1
:1044D000A36816F80910013B002BA36004DAA26957
:1044E00093421BDB0A2919D023685A1C22601970D9
:1044F0000136EBE704F15C033A4601A9404601F0BE
:10450000EBFB431C0546DED1A38943F04003A381A6
:104510004FF0FF37384603B0BDE8F08322464046EF
:1045200001F054FC0130E3D1F2E7536EDB0770B5C4
:1045300005460E46144605D49389980502D4906D1D
:10454000FCF72CFEB4F90C30990406D443F4005364
:10455000A381636E43F400536366224628463146C6
:10456000FFF7A2FF636EDA07054605D4A3899B0512
:1045700002D4A06DFCF713FE284670BD884210B52A
:1045800001EB020402D98442234607D8431EA1420C
:1045900008D011F8012B03F8012FF8E70244014677
:1045A0008A4200D110BD13F8014D02F8014DF7E722
:1045B00010B50139034632B111F8014F03F8014B30
:1045C000013A002CF7D11A440021934200D110BDCA
:1045D00003F8011BF9E70000014B93F8280170472D
:1045E0004C050020004870473C0600200A449142D8
:1045F00000F1FF3300D1704710B511F8014B03F8FB
:10460000014F9142F9D110BD70B5002155EC104B0E
:104610000160154925F000428A4206462B4620D803
:10462000214611431DD01149294061B9104B002288
:1046300020462946FBF7E8FF0B4621F000426FF0C9
:104640003501044631603168121523F0FF43A2F2B0
:10465000FE3223F4E003114443F07F55316045F40A
:10466000001545EC104B70BDFFFFEF7F0000F07FA1
:10467000000050432DE9F74F03690C69A342074638
:104680007EDB013C01F11408A30000F11405009346
:1046900005EB8403019358F8243055F824200133A6
:1046A0009A4208EB8409B2FBF3F62ED34FF0000ACE
:1046B000C446AE46D3465CF8043B98B206FB00A065
:1046C000020C1B0C06FB0323DEF8002080B292B222
:1046D000121A5A44DEF800004FEA134A9BB2C3EBA9
:1046E000224303EB104392B242EA0342E1454EF803
:1046F000042B4FEA234BDED2009BEB582BB9019BD6
:10470000043B9D421A462FD33C61384601F026F8FF
:10471000002825DB2946002058F8042BD1F800C0DA
:104720001FFA82FE1FFA8CF3A3EB0E030344120C54
:10473000C2EB234202EB1C429BB243EA0243C14557
:1047400041F8043B4FEA2240E6D255F8242005EB1D
:10475000840322B9043B9D421A460BD33C610136C7
:10476000304603B0BDE8F08F1268043B002ACBD17D
:10477000013CC6E71268043B002AEFD1013CEAE79E
:104780000020EEE7000000002DE9F04F99B08DED1C
:10479000020B0991816B229E0E9255EC104B8346C1
:1047A000139349B1C26B4A60012393408B6000F0C0
:1047B000CEFD0023CBF838302B1EB9BF23F00043C9
:1047C000039300233360039F974BBCBF01223260E9
:1047D000BB4314D1139A42F20F731360C7F3130350
:1047E000234300F04C85239BDFF854A21BB10AF150
:1047F0000303239A1360504619B0BDE8F08F9DED76
:10480000027B002251EC170B00238DED0C7BFCF793
:1048100063F9804650B1139A01231360239B13B1AF
:10482000239A824B1360DFF81CA2E4E79DED0C0B8A
:1048300016AA17A9584601F041F8C7F30A5681464F
:10484000002E77D00D9BCDF85080C3F31303DDE924
:104850000C0143F07F5343F44013A6F2FF36194690
:104860000022734BFBF718FD69A3D3E90023FBF784
:10487000CBFE69A3D3E90023FBF710FD04463046C5
:104880000D46FBF757FE66A3D3E90023FBF7BCFEFA
:1048900002460B4620462946FBF700FD04460D461E
:1048A000FCF762F900220746002320462946FCF760
:1048B0001DF940B13846FBF73DFE22462B46FCF77A
:1048C0000BF900B9013F162F51D85A4B03EBC70320
:1048D000D3E90023DDE90C01FCF708F9002848D0F2
:1048E000013F00231293169B9B1B5A1E44BFC3F12A
:1048F00001080023089254BF4FF000080893002FCE
:1049000039DB089B0F973B44089300230A93099BCC
:10491000092B65D8052BC4BF043B0993099BA3F160
:104920000203CCBF00240124032B64D8DFE803F08A
:104930002A373556DDE916631E4406F23243202B32
:10494000C1BFC3F140039F4006F2124324FA03F3B0
:10495000D6BFC3F1200347EA030004FA03F0FBF7D4
:10496000D9FD0122A1F1F873013E149277E70123EA
:10497000B8E71290B7E77B420A930023A8EB070839
:104980000F93C4E700230B930E9B002B36DC01230F
:10499000009307931A460E920BE00123F3E70023DE
:1049A0000B930E9BFB1800930133012B0793B8BFA9
:1049B00001230021042202F11400984222D9CBF8ED
:1049C0003C10584600F09EFC824600283CD11A4B11
:1049D000024640F2AF11194801F064FA0123DFE703
:1049E0000124002309930B944FF0FF3300930793A6
:1049F00000221223CFE701230B93F5E70E9B0093D0
:104A00000793D6E701315200D5E700BFAFF300802E
:104A100061436F63A787D23FB3C8608B288AC63FC4
:104A2000FB799F501344D33F0000F07F7360000870
:104A30000000F83FC8610008CB600008DC60000897
:104A4000C760000872600008079BCBF838000E2B87
:104A500000F2A480002C00F0A180002F33DDAE4BCB
:104A600007F00F0203EBC20393ED007BF8058DED19
:104A7000047B4FEA271416D5A84BDDE90C01D3E9D6
:104A80000823FBF7EBFECDE9020104F00F04032637
:104A9000A24D54B9DDE90423DDE90201FBF7DEFE96
:104AA000CDE9020128E00226F2E7E10708D5DDE9B9
:104AB0000401D5E90023FBF7A7FDCDE90401013688
:104AC00064100835E5E700F0D2807C42924B934DAC
:104AD00004F00F0203EBC203D3E90023DDE90C016C
:104AE000FBF792FDCDE90201241100230226002CE0
:104AF00040F0B280002BD3D1129BDDE90245002BA0
:104B000000F0B780864B002220462946FBF7EEFFD7
:104B1000002800F0AE80079B002B00F0AA80009BCD
:104B2000002B37DD7B1E049320467E4B0022294656
:104B3000FBF76AFDCDE90201009C01363046FBF728
:104B4000F9FCDDE90223FBF75FFD774B0022FBF761
:104B5000A5FB0546A1F15076002C40F08D80DDE9E3
:104B60000201724B0022FBF797FB02460B46CDE990
:104B700002232A463346FBF7D7FF002840F08C82F9
:104B8000DDE902012A4606F10043FBF7AFFF0028EA
:104B900040F02981DDE90C34CDE90234179B002B6C
:104BA000C0F25B810E2F00F358815B4B03EBC70310
:104BB00093ED007B0E9B002B8DED007B03DA079BB2
:104BC000002B40F30281DDE902455646DDE9002372
:104BD00020462946FBF742FEFBF7C6FF8046FBF75F
:104BE000A9FCDDE90023FBF70FFD02460B4620463A
:104BF000294608F13004FBF74FFB06F8014B079DEF
:104C0000A6EB0A04A54202460B4640F01881FBF7CA
:104C100045FBDDE9002304460D46FBF785FF002830
:104C200040F0FA80DDE9002320462946FBF754FFD7
:104C300018B118F0010F40F0EF804946584600F0D7
:104C400086FB00233370139B01371F60239B002BCF
:104C50003FF4D1AD1E60CEE5E20705D5D5E90023CE
:104C6000FBF7D2FC01360123641008353FE702262A
:104C700042E7079C049761E7274B0B9903EBC403BA
:104C800053E902235444002954D029490020FBF75A
:104C9000E5FD33462A46FBF7FFFACDE910015646FB
:104CA000DDE90201FBF760FF0546FBF743FC024626
:104CB0000B46DDE90201FBF7EFFA303502460B4601
:104CC000CDE9022306F8015BDDE91023FBF70EFFB7
:104CD000002872D1DDE9022311490020FBF7DCFA3C
:104CE000DDE91023FBF702FF002840F09680A64282
:104CF0003FF450AFDDE910010A4B0022FBF784FCC2
:104D0000084BCDE910010022DDE90201FBF77CFC34
:104D1000CDE90201C4E700BFC8610008A061000836
:104D20000000F03F0000244000001C400000144040
:104D30000000E03F31462846FBF766FCCDE9100154
:104D400015945646DDE90201FBF70EFF0546FBF719
:104D5000F1FB02460B46DDE90201FBF79DFA303517
:104D600006F8015B02460B46A642CDE902234FF04E
:104D7000000224D1AC4BDDE91001FBF78FFA0246AB
:104D80000B46DDE90201FBF7CFFE002845D1DDE946
:104D90001023A5490020FBF77FFA02460B46DDE908
:104DA0000201FBF7A3FE00283FF4F4AE159E731E2C
:104DB000159316F8013C302BF8D0049F3DE79B4B30
:104DC000FBF722FCCDE90201BCE70CD1984B002295
:104DD000DDE90001FBF718FCDDE90223FBF79AFE91
:104DE000002800F05781002425460E9BDB430493E6
:104DF000564600272146584600F0A9FA002DDCD07F
:104E00002FB1AF4203D03946584600F0A0FA2946E8
:104E1000584600F09CFAD0E7049733461E4613F834
:104E2000012D392A07D19A45F8D1049A013204920A
:104E300030228AF800201A7801321A70BDE77B4BC5
:104E40000022FBF7E1FB0022002304460D46FBF79E
:104E500043FE00283FF4BAAEEFE60B9A002A00F0BA
:104E6000DB80099A012A00F3BF80149A002A00F01F
:104E7000B78003F233430A9C4646089A01211A443C
:104E800058469844089200F0FDFA05465EB1089B2A
:104E9000002B08DDB342089AA8BF3346A8EB0308ED
:104EA000F61AD31A08930A9BF3B10B9B002B00F060
:104EB000B7808CB129462246584600F0A3FB4A46EB
:104EC00001460546584600F0F3FA49460490584614
:104ED00000F03DFA049B99460A9B1A1B04D04946F0
:104EE000584600F08FFB81460121584600F0CAFA6F
:104EF0000F9B0446002B00F0CC811A460146584611
:104F000000F080FB099B012B044600F39580029B77
:104F1000002B40F08780039BC3F31303002B40F06A
:104F20008980039B23F000431B0D1B052BB1089BBD
:104F30000133089308F1010801230A930F9B002B0A
:104F400000F0AD81236904EB8303186900F04EFA89
:104F5000C0F12000089B184410F01F0077D0C0F16A
:104F60002003042B6BDD089BC0F11C00034480442C
:104F700006440893B8F1000F05DD494642465846FD
:104F800000F080FB8146089B002B05DD21461A4678
:104F9000584600F077FB0446129B002B59D021465F
:104FA000484600F0DBFB002853DA7B1E0493494699
:104FB00000230A22584600F0D3F90B9B8146002BB0
:104FC00000F06F81002329460A22584600F0C8F9F4
:104FD000009B002B054667DC099B022B41DC63E04C
:104FE000169BC3F1360346E7079B5C1E0A9BA34250
:104FF000BFBF0A9B0F9A0A94E31AB4BFD2181C1BB6
:10500000079BBCBF0F920024002BB5BFA8EB030683
:10501000079B0023464630E70A9C0B9D464635E732
:105020000A9A5CE7002388E70000E03F0000244084
:1050300000001440029B80E700230A9382E799D086
:10504000089A1C331A4498441E44089292E7034677
:10505000F6E7079B0497002B20DC0093099B022BAB
:105060001EDD009B002B7FF4C0AE21460522584672
:1050700000F076F901460446484600F06FFB002830
:105080007FF7B3AE5646312306F8013B049B01334C
:105090000493AEE6079C04972546F3E7079B00932D
:1050A0000B9B002B00F00181002E05DD29463246C6
:1050B000584600F0E7FA05460A9B002B59D069686C
:1050C000584600F01FF9064620B9834B024640F2CD
:1050D000EF2180E42A690232920005F10C010C30C4
:1050E000FFF784FA01223146584600F0CBFA0AF164
:1050F00001030793009B53440B93029B03F00103AE
:105100002F460A930546079B2146013B48460093DC
:10511000FFF7B0FA3946029000F13008484600F037
:105120001DFB2A4608902146584600F033FBC26812
:10513000064602BB0146484600F010FB02463146D7
:1051400058460E9200F003F9099B0E9A079E43EA17
:1051500002010A9B194310D1B8F1390F29D0089BDD
:10516000002B02DD029B03F13108009B83F80080D5
:1051700040E62846BBE70122E1E7089B002B04DB61
:1051800009990B430A990B4320D1002AEDDD4946CA
:105190000122584600F076FA2146814600F0DEFAF8
:1051A000002803DCE1D118F0010FDED0B8F1390F8F
:1051B000D8D1009A3923137033461E46013B16F8A6
:1051C000012C392A52D001321A7013E6002A07DD69
:1051D000B8F1390FEDD0009A08F10103137009E618
:1051E000079B079A03F8018C0B9B934228D04946F2
:1051F00000230A22584600F0B3F8AF4281464FF030
:1052000000034FF00A023946584607D100F0A8F8CB
:1052100007460546079B0133079374E700F0A0F8A3
:105220002946074600230A22584600F099F8054609
:10523000F0E7009B002BCCBF1E46012656440027FA
:1052400049460122584600F01DFA2146814600F0E9
:1052500085FA0028B0DC02D118F0010FACD133463A
:105260001E4613F8012D302AFAD0C3E59A45A4D181
:10527000049B0133049331238AF80030BAE5239B61
:10528000DFF858A0002B3FF4B6AA0AF10803FFF795
:10529000B0BA099B012B7FF73AAE0F9B0A9301200E
:1052A00058E6009B002B7FF7D9AE5646214648466C
:1052B000FFF7E0F900F1300806F8018B009BA6EB40
:1052C0000A029342B5DD494600230A22584600F0FF
:1052D00047F88146EAE700BFCB600008BE600008DF
:1052E00082B001B901A942B14BB113780B601278B9
:1052F000101E18BF012002B070471046FBE76FF088
:105300000100F8E7436C70B505460C467BB16B6C49
:1053100053F82400A0B9012101FA04F6721D92008D
:10532000284600F0DDFD48B1C0E901460BE021222E
:10533000042100F0D5FD68640028E8D1002070BD8C
:10534000026843F824200023C0E90333F7E731B1B2
:10535000436C4A6853F82200086043F822107047F3
:105360002DE9F0410D6907460C461E4601F1140C6B
:105370000020DCF8003099B202FB01611E0C0B0C1E
:1053800002FB063389B2013001EB034185424CF840
:10539000041B4FEA1346ECDC0EB3A368AB4219DCE6
:1053A000616838460131FFF7ADFF804628B90246F3
:1053B0000C4B0D48BA2100F075FD2269023204F150
:1053C0000C0192000C30FFF711F921463846FFF727
:1053D000BEFF444604EB850301355E61256120462E
:1053E000BDE8F081CB60000834610008B0F5803F73
:1053F000034636BF030400201020B3F1807F3CBF7A
:105400001B020830B3F1805F3CBF1B010430B3F1D5
:10541000804F3CBF9B000230002B05DB13F0804F18
:1054200000F1010008BF202070470368024613F016
:1054300007000BD0D90721D4980749BF5B089B0808
:10544000012013605CBF13600220704799B209B954
:105450001B0C1020D9B209B908301B0A190704BF68
:105460001B090430990704BF9B080230D90703D4F5
:105470005B0800F1010003D0136070470020704703
:105480002020704710B50C460121FFF73BFF024674
:1054900028B9054B054840F2451100F003FD0123F2
:1054A0004461036110BD00BFCB6000083461000897
:1054B0002DE9F04F14460A6923699A42A8BF234692
:1054C0000F46A4BF0C461F46D4F810A0D7F8109082
:1054D000A36861680AEB0906B34285B0B8BF013121
:1054E000FFF710FF30B90246444B45484FF4B17105
:1054F00000F0D8FC00F1140505EB86082B460022CD
:10550000434521D307F1140104F1140202EB8A028E
:1055100001EB89030293131B153B23F003030433B0
:1055200004F11507BA4238BF04230193029B03918B
:105530008B420CD8002E03DD58F8043D002B5BD0C5
:10554000066105B0BDE8F08F43F8042BD8E7B1F849
:1055500000A0BAF1000F24D004F1140EA9464FF0B8
:10556000000C5EF8047BD9F800301FFA87FB9BB271
:105570000AFB0B334FEA174BD9F8007063444FEA2C
:10558000174C0AFB0BC707EB13479BB243EA0743D1
:10559000724549F8043B4FEA174CE2D8019B45F8A5
:1055A00003C0039BB3F802900431B9F1000F21D07E
:1055B0002B6804F1140CAE464FF0000ABCF800B0A2
:1055C000BEF8027009FB0B7757449BB243EA0743CE
:1055D0004EF8043B5CF8043B4FEA134ABEF8003037
:1055E00009FB0A3303EB174362454FEA134AE5D838
:1055F000019FEB51043599E7013E9BE7CB60000822
:10560000346100082DE9F843154612F003020746FD
:105610000E4607D01A4C013A002354F82220FFF717
:105620009FFE0646AD1027D03C6C44B940F2712174
:105630003846FFF727FF00233864044603604FF025
:105640000009EB070AD5314622463846FFF730FFFE
:10565000314680463846FFF77AFE46466D100BD03D
:10566000206838B9224621463846FFF721FF2060DE
:10567000C0F800900446E4E73046BDE8F88300BF78
:10568000906100082DE9F0470C464968236903EB57
:105690006218A368074691464FEA621A08F10106AC
:1056A000B3420BDB3846FFF72DFE054648B90246EC
:1056B000284B29484FF4EF7100F0F4FB01315B00F7
:1056C000EEE7002300F1140100F1100218465345E3
:1056D00033DB20692AEAEA7A04F1140319F01F097E
:1056E00001EB8A0103EB800C2BD0C9F1200E8A4616
:1056F0000022186800FA09F010434AF8040B53F826
:10570000042B9C4522FA0EF2F3D8ACEB0403153BB4
:1057100023F00303043304F11500844538BF042348
:10572000CA500AB108F10206013E38462E612146F0
:10573000FFF70DFE2846BDE8F08742F8040F01335D
:10574000C5E7043953F8042B41F8042F9C45F9D8D8
:10575000EAE700BFCB600008346100080A6903462D
:105760000069801A30B50ED11433143103EB820472
:1057700001EB820154F8045D51F8042D954203D0E9
:1057800005D24FF0FF3030BDA342F3D3FBE7012039
:10579000F9E700002DE9F74F8946064611464846CD
:1057A0001446FFF7DBFF051E12D129463046FFF7EE
:1057B000A9FD024628B93F4B40F237213E4800F090
:1057C00071FB0123C0E90435104603B0BDE8F08F3A
:1057D000BCBF4B46A1463046D9F80410BABF1C46A0
:1057E00001250025FFF78EFD024618B9314B40F226
:1057F0004521E3E7D9F810702669C56009F1100367
:1058000009F1140504F1140E00F1140B05EB8708DF
:105810000EEB86060193D9464FF0000C019B5EF813
:10582000040B53F804AF01931FFA8AF3194683B2AD
:10583000CB1A000C6344C0EB1A4000EB23409BB230
:1058400043EA0043764549F8043B4FEA204CE5D84B
:10585000331B153B23F0030315340433A64238BF32
:1058600004231D445B441E462C4644450ED308F1D8
:105870000301491B21F00301033DA84538BF002166
:105880000B4453F8041D91B117619DE754F8041BB4
:10589000E646080C1CFA81FC714400EB2C4089B2EE
:1058A00041EA004146F8041B4FEA204CDDE7013F86
:1058B000E7E700BFCB600008346100082DE9F7433B
:1058C0000F46012159EC108B1646FFF71BFD0446CD
:1058D00030B90246234B244840F20F3100F0E2FA7F
:1058E000C9F30A55C9F313030DB143F480130193AF
:1058F000B8F1000323D068460093FFF796FDDDE979
:105900000012D0B1C0F1200302FA03F30B43C240EE
:1059100063610192019BA361002B0CBF0122022253
:105920002261A5B1A5F2334505443D60C0F13500C3
:105930003060204603B0BDE8F0836161EAE701A86A
:10594000FFF773FD019B636120300122E8E704EB60
:105950008203A0F2324038601869FFF747FDC0EBC0
:105960004210E5E7CB600008346100082DE9F74FED
:10597000824693460C4629B9114603B0BDE8F04F64
:10598000FBF734BDFBF76CFF0BF10B0854F8045C1C
:10599000B8F1160FA4F1080925F0030608D938F06C
:1059A000070807D50C23CAF800304FF0000B32E08F
:1059B0004FF01008C345F5D8464580F274819E4BE0
:1059C000D3F808C009EB06018C45486805D020F0E3
:1059D00001020A445268D70749D420F003008C45DD
:1059E00006EB00071BD108F11002BA4241DC09EBBB
:1059F0000802A7EB080747F001079A60576054F8C0
:105A0000043C03F0010343EA080344F8043C504615
:105A1000FBF72CFFA346584603B0BDE8F08FB8450E
:105A200027DCD1E90223D3609A60D9F80430A7EBD0
:105A300008000F2803F0010309EB070240F235814B
:105A400009EB080148EA030340F00100C9F80430FB
:105A50004860536843F00103536008315046FBF738
:105A600005FC5046FBF702FF09F1080BD3E70020C5
:105A70000146EA0700F1C78054F8085CA9EB050568
:105A80006A6822F0030232440192002900F0868005
:105A90008C4500EB020749D108F11002BA427DDCC7
:105AA000AB46EA685BF8081FCA609160321F242A7F
:105AB00036D8132A32D92168A9606168E9601B2AA7
:105AC0001AD8083405F1100221681160616851602C
:105AD000A168916005EB0802A7EB080747F00107F2
